:020000040000FA
:10000000DDEF39F0C96E120026EF36F03AEC0FF052
:1000100083EC0CF0FDD712007DEF37F0D9CFE5FF70
:10002000E1CFD9FF00C0E5FF01C0E5FF02C0E5FF59
:1000300003C0E5FF04C0E5FF05C0E5FF06C0E5FF1E
:1000400007C0E5FF08C0E5FF09C0E5FF0AC0E5FFFE
:100050000BC0E5FF0CC0E5FF0DC0E5FF0EC0E5FFDE
:100060000FC0E5FF10C0E5FF11C0E5FF12C0E5FFBE
:1000700013C0E5FF14C0E5FF15C0E5FF16C0E5FF9E
:1000800017C0E5FF18C0E5FF19C0E5FF1AC0E5FF7E
:100090001BC0E5FF1CC0E5FF1DC0E5FF1EC0E5FF5E
:1000A0001FC0E5FF20C0E5FF21C0E5FF22C0E5FF3E
:1000B00023C0E5FF24C0E5FF25C0E5FF26C0E5FF1E
:1000C00027C0E5FF020EDBCF00F0030EDBCF01F00F
:1000D000040EDBCF02F00250086E0150076E005094
:1000E000066EE56A100EE56E0850E56E0750E56E87
:1000F0000650E56E800EE56E070EE56E200EE56E8D
:100100008BEC2AF0080EE12628C703F029C704F07B
:100110002AC705F02BC706F003C007F004C008F09B
:1001200005C009F006C00AF0D8800AAED8900AE3EC
:100130000A1E091E081E076C05E1082A03E1092AA8
:10014000D8B40A2A20C70BF021C70CF0E86A0701CF
:1001500021BFFF0E0D6E0E6E23510F6E2451106ED7
:100160002551116E126A11BE12680F500B5C0F6E92
:1001700010500C58106E11500D58116E12500E5830
:10018000126E800F810F08E1FF0E115C05E1FF0E7A
:10019000105C02E1FE0E0F5CD8A040D01250800F20
:1001A000800F08E1000E115C05E1000E105C02E119
:1001B000030E0F5C33E20A340A30166E0930156EF6
:1001C0000830146E0730136E2EC717F02FC718F0C3
:1001D000E86A07012FBFFF0E196E800FF36E1650ED
:1001E000800FF35C08E11550195C05E11450185CB0
:1001F00002E11350175C12E30D50166E0C50156E91
:100200000B500701226B236F1550246F1650256F7A
:10021000286B296B2A6B2B6BA1EF04F0D890093067
:100220000C6E08300B6ED8900C320B32D8900C321A
:100230000B320A50E838E844E00B0C120A38E84464
:100240001F0B0850076E0950086E0BC009F00CC058
:100250000AF0E86A0CBEFF0E0D6E0E6E07C013F0BA
:1002600008C014F0E86A08BEFF0E156EE56E155062
:10027000E56E1450E56E1350E56E0E50E56E0D50B0
:10028000E56E0A50E56E0950E56E8FEC20F0096EC0
:10029000F3CF0AF0F4CF0DF0E9CF0EF0080EE1260F
:1002A0002EC713F02FC714F0E86A07012FBFFF0E07
:1002B000156E166EE56E1550E56E1450E56E135012
:1002C000E56E0E50E56E0D50E56E0A50E56E095074
:1002D000E56E75EC22F0096EF3CF0AF0080EE12608
:1002E00026C70DF027C70EF0E86A070127BFFF0EEB
:1002F000176E0E501B6E1B2617341C6ED8901B36C3
:100300001C360D44E844FC0B1A6E0D50E844E844DA
:10031000030B1B12196AD88006AED890D8B06BD1E7
:1003200009C00DF00AC00EF0E86A0ABEFF0E176E93
:10033000800FF36E1250800FF35C08E11150175CD0
:1003400005E110500E5C02E10F500D5CD8B02BD1CE
:100350000650800FF36E1C50800FF35C08E11B50B9
:10036000055C05E11A50045C02E11950035CD8B049
:10037000F3D02CC70DF02DC70EF0E86A07012DBF92
:10038000FF0E176E186E03500D2604500E220550F6
:100390001722065018220D500701286F0E50296FA2
:1003A00017502A6F18502B6F2EC70DF02FC70EF065
:1003B0002CC717F02DC718F00E50800FF36E185091
:1003C000800FF35C02E117500D5CD8B0A9D028C7AC
:1003D0001DF029C71EF02AC71FF02BC720F0D890A8
:1003E0001F30226E1E30216ED89022322132D890DA
:1003F000223221322050E838E844E00B2212203823
:10040000E8441F0B21500B6E22500C6E1E50216EC3
:100410001F50226E2150076E2250086E0BC021F033
:100420000CC022F0E86A0CBEFF0E236E246E07C0DB
:1004300025F008C026F0E86A08BEFF0E276EE56EBC
:100440002750E56E2650E56E2550E56E2450E56E8A
:100450002350E56E2250E56E2150E56E8FEC20F0C2
:10046000216EF3CF22F0F4CF23F0E9CF24F0080E71
:10047000E1260DC025F00EC026F0E86A0EBEFF0E84
:10048000276EE56E2750E56E2650E56E2550E56E29
:100490002450E56E2350E56E2250E56E2150E56E46
:1004A00075EC22F0216EF3CF22F0080EE1262150E8
:1004B000096E22500A6E09C021F00AC022F0E86AD3
:1004C0000ABEFF0E236E246E1250800FF36E24506E
:1004D000800FF35C08E12350115C05E12250105CB1
:1004E00002E121500F5C1CE20D50175C0D6E0E50A6
:1004F00018580E6EE86A0EBEFF0E176E186E0D507D
:100500001D5E0E501E5A17501F5A1850205A1D506B
:100510000701286F1E50296F1F502A6F20502B6F24
:100520001C50800FF36E07012B51800FF35C08E124
:100530002A511B5C05E129511A5C02E12851195C22
:10054000D8B0D8D119500701286F1A50296F1B5005
:100550002A6F1C502B6FCED11C50800FF36E0650AB
:10056000800FF35C08E105501B5C05E104501A5C48
:1005700002E10350195CD8B0BDD11350035C0D6E7D
:10058000145004580E6E15500558176E1650065824
:10059000186E0D500701286F0E50296F17502A6FE3
:1005A00018502B6FA7D12CC70DF02DC70EF0E86A9D
:1005B00007012DBFFF0E176E186E13500D26145035
:1005C0000E2215501722165018220D50035C0D6E86
:1005D0000E5004580E6E17500558176E18500658D6
:1005E000186E0D500701286F0E50296F17502A6F93
:1005F00018502B6F7FD10A1E096CD8B40A2A09C083
:100600000DF00AC00EF0E86A0ABEFF0E176E186EF3
:100610001250800FF36E1850800FF35C08E11750F2
:10062000115C05E10E50105C02E10D500F5CD8B07A
:100630003ED11C1C186E1B1C176E1A1C0E6E191C4A
:100640000D6E0D2A04E10E2A02E1174A182A1850ED
:10065000800FF36E0650800FF35C08E10550175CC5
:1006600005E104500E5C02E103500D5CD8B0F8D0F7
:100670002CC719F02DC71AF0E86A07012DBFFF0E2D
:100680001B6E1C6E1950035C196E1A5004581A6EBA
:100690001B5005581B6E1C5006581C6E1950070144
:1006A000286F1A50296F1B502A6F1C502B6F2EC7B2
:1006B00019F02FC71AF02CC71BF02DC71CF01A50C9
:1006C000800FF36E1C50800FF35C02E11B50195C2D
:1006D000D8B0AAD028C71DF029C71EF02AC71FF01E
:1006E0002BC720F0D8901F30226E1E30216ED8907C
:1006F00022322132D890223221322050E838E84488
:10070000E00B22122038E8441F0B221E216C02E16C
:10071000222A00E121500B6E22500C6E1E50216ED9
:100720001F50226E221E216C02E1222A00E121507C
:10073000076E2250086EE86A0CBEFF0E216E226E14
:10074000E86A08BEFF0E236EE56E2350E56E085082
:10075000E56E0750E56E2250E56E2150E56E0C50B7
:10076000E56E0B50E56E8FEC20F0076EF3CF08F0CE
:10077000F4CF0BF0E9CF0CF0080EE12619C021F000
:100780001AC022F0E86A1ABEFF0E236EE56E2350EF
:10079000E56E2250E56E2150E56E0C50E56E0B5073
:1007A000E56E0850E56E0750E56E75EC22F0076EB9
:1007B000F3CF08F0080EE126081E076C02E1082AB4
:1007C00000E10750096E08500A6EE86A0ABEFF0E83
:1007D000076E800FF36E1250800FF35C08E111502A
:1007E000075C05E110500A5C02E10F50095C1CE255
:1007F00019501B5C196E1A501C581A6EE86A1ABE02
:10080000FF0E076E086E19501D261A501E22075043
:100810001F22085020221D500701286F1E50296FEB
:100820001F502A6F20502B6F07012B51800FF36E42
:100830001850800FF35C08E117502A5D05E10E5057
:10084000295D02E10D50285DD8B054D00D5007014C
:10085000286F0E50296F17502A6F18502B6F4AD0EF
:100860000650800FF36E1850800FF35C08E11750AC
:10087000055C05E10E50045C02E10D50035CD8B04C
:1008800039D013500324076E14500420086E1550FD
:100890000520096E165006200A6E07500701286FC2
:1008A0000850296F09502A6F0A502B6F23D02CC78C
:1008B00007F02DC708F0E86A07012DBFFF0E096E8B
:1008C0000A6E0750132608501422095015220A50A8
:1008D00016221350032614500422155005221650D8
:1008E000062203500701286F0450296F05502A6F14
:1008F00006502B6FD89007012A31046E2931036E00
:10090000D890043203322B51E840E840C00B041267
:100910002B41E8403F0BE8BAC009056E066A05BEE8
:100920000668225103262351042224510522255111
:1009300006220350226F0450236F0550246F065087
:10094000256FE56A100EE56E800EE56E070EE56E0A
:10095000200EE56E0250E56E0150E56E0050E56E2A
:100960008BEC2AF0080EE126E4CF27F0E4CF26F046
:10097000E4CF25F0E4CF24F0E4CF23F0E4CF22F05D
:10098000E4CF21F0E4CF20F0E4CF1FF0E4CF1EF05D
:10099000E4CF1DF0E4CF1CF0E4CF1BF0E4CF1AF05D
:1009A000E4CF19F0E4CF18F0E4CF17F0E4CF16F05D
:1009B000E4CF15F0E4CF14F0E4CF13F0E4CF12F05D
:1009C000E4CF11F0E4CF10F0E4CF0FF0E4CF0EF05D
:1009D000E4CF0DF0E4CF0CF0E4CF0BF0E4CF0AF05D
:1009E000E4CF09F0E4CF08F0E4CF07F0E4CF06F05D
:1009F000E4CF05F0E4CF04F0E4CF03F0E4CF02F05D
:100A0000E4CF01F0E4CF00F0E4CFD9FF1200D9CF5A
:100A1000E5FFE1CFD9FF00C0E5FF01C0E5FF02C05F
:100A2000E5FF03C0E5FF04C0E5FF05C0E5FF06C024
:100A3000E5FF07C0E5FF08C0E5FF09C0E5FF0AC004
:100A4000E5FF0BC0E5FF0CC0E5FF0DC0E5FF0EC0E4
:100A5000E5FF0FC0E5FF10C0E5FF11C0E5FF12C0C4
:100A6000E5FF13C0E5FF14C0E5FF15C0E5FF16C0A4
:100A7000E5FF17C0E5FF18C0E5FF19C0E5FF1AC084
:100A8000E5FF1BC0E5FF1CC0E5FF1DC0E5FF1EC064
:100A9000E5FF020EDBCF00F0030EDBCF01F0040E0A
:100AA000DBCF02F0050EDBCF03F0060EDBCF04F048
:100AB000070EDBCF05F0080EDBCF06F0090EDBCF0B
:100AC00007F00A0EDBCF08F0096A0A6A02C00DF0CF
:100AD0000D50800A0DE1025007017C6F01507B6FC1
:100AE00000507A6F070E016E7A0E006E800E026E55
:100AF00003C0E9FF04C0F3FF05503AEC3AF00B6E77
:100B00000B50D8B4BDEF08F00B50250A02E0A4EF5B
:100B100008F00C6A0D6A0E6A0F6A106A0A0E116EEE
:100B2000126A136A146A200E156E1668176A2B0E65
:100B3000186E032A02E3044A052A03C0E9FF04C031
:100B4000F3FF05503AEC3AF0196E250A13E11950FB
:100B5000E56E0250E56E0150E56E0050E56E73ECF7
:100B600028F0040EE126094A0A2A032A02E3044A6D
:100B7000052ABED71950300A06E1300E156E032A39
:100B800002E3044A052A03C0E9FF04C0F3FF05504D
:100B90003AEC3AF02D0A06E1010E146E032A02E344
:100BA000044A052A03C0E9FF04C0F3FF05503AECEC
:100BB0003AF0200A08E1010E176E200E186E032A83
:100BC00002E3044A052A03C0E9FF04C0F3FF05500D
:100BD0003AEC3AF02B0A06E1010E176E032A02E303
:100BE000044A052A03C0E9FF04C0F3FF05503AECAC
:100BF0003AF0196E310E195C2BE33A0E195C28E2BB
:100C000003C019F004C01AF005C01BF019C0E9FFB9
:100C10001AC0F3FF1B503AEC3AF01C6E300E1C5C0D
:100C200011E33A0E1C5C0EE213500A0DF3CF1DF0D7
:100C30001C501D26D00E1D24136E192A02E31A4AD9
:100C40001B2AE4D719C003F01AC004F01BC005F03A
:100C500003C0E9FF04C0F3FF05503AEC3AF02E0A56
:100C60002DE1032A02E3044A052A166A03C019F09B
:100C700004C01AF005C01BF019C0E9FF1AC0F3FF49
:100C80001B503AEC3AF01C6E300E1C5C11E33A0E2D
:100C90001C5C0EE216500A0DF3CF1DF01C501D26F1
:100CA000D00E1D24166E192A02E31A4A1B2AE4D715
:100CB00019C003F01AC004F01BC005F003C0E9FF1F
:100CC00004C0F3FF05503AEC3AF0196E6C0A07E1E4
:100CD000010E0C6E032A02E3044A052A09D01950BA
:100CE000680A06E1010E0E6E032A02E3044A052A91
:100CF00003C0E9FF04C0F3FF05503AEC3AF0750A6F
:100D000006E1010E106E032A02E3044A052A03C01D
:100D1000E9FF04C0F3FF05503AEC3AF0196E730A8C
:100D200005E1010E0D6E200E156E3FD01950780AA8
:100D300003E1100E116E39D01950580A05E1100E5A
:100D4000116E010E126E31D01950630A02E1116A60
:100D50002CD019506F0A03E1080E116E26D01950DD
:100D6000660A03E1010E0F6E20D01950640A1DE0DF
:100D70001950690A1AE0105005E0FF0E03260422FC
:100D8000052213D01950E56E0250E56E0150E56E54
:100D90000050E56E73EC28F0040EE126094A0A2A99
:100DA000032A02E3044A052AA3D60D5021E0065087
:100DB000030F0D6E000E0720196E000E08201A6E2C
:100DC0000DC006F019C007F01AC008F0FD0E0D2680
:100DD000FF0E19221A220DC0E9FF19C0F3FF1A50A5
:100DE000DDEC38F00D6EF3CF19F0F4CF1AF0FDD032
:100DF0000F500DE0000E1A6E120E196E020E0D6EDF
:100E0000040E0626000E072208221668EED0166889
:100E10000C5023E00650040F0C6E000E07200F6EDE
:100E2000000E08201B6E0CC006F00FC007F01BC0A0
:100E300008F0FC0E0C26FF0E0F221B220CC0E9FF4F
:100E40000FC0F3FF1B5063EC38F00C6EF3CF0FF0C4
:100E5000F4CF1BF0E9CF1CF067D00E502FE0065006
:100E6000020F0E6E000E07201D6E000E08201E6E73
:100E70000EC006F01DC007F01EC008F0FE0E0E26C4
:100E8000FF0E1D221E220EC0E9FF1DC0F3FF1E50E3
:100E90009CEC39F00E6E0EC00CF00F6A1B6A1C6AD7
:100EA00011500A0A03E11050D8B43ED00C500E6E17
:100EB0000EC00CF00F6A1B6A1C6A36D00650020F77
:100EC0000E6E000E07201D6E000E08201E6E0EC056
:100ED00006F01DC007F01EC008F0FE0E0E26FF0E25
:100EE0001D221E220EC0E9FF1DC0F3FF1E509CEC08
:100EF00039F00E6EF3CF1DF00EC00CF01DC00FF0D8
:100F0000E86A1DBEFF0E1B6E1C6E11500A0A02E13C
:100F100010500AE00C500E6E0F501D6E0EC00CF0FB
:100F20001DC00FF01B6A1C6A070E196E4B0E0D6E6A
:100F3000800E1A6E1150D8B440D0105013E01150EA
:100F4000E56E070EE56E4B0EE56E1C50E56E1B5010
:100F5000E56E0F50E56E0C50E56E99EC21F0070E32
:100F6000E12612D01150E56E070EE56E4B0EE56ED0
:100F70001C50E56E1B50E56E0F50E56E0C50E56E93
:100F800006EC2FF0070EE12617502FE00DC0E9FF09
:100F900019C0F3FF1A503AEC3AF02D0A26E0FF0E82
:100FA0000D2619221A2218C0E5FF0DC0E9FF19C04D
:100FB000F3FF1A50BDEC3AF018D00CC0E5FF0DC09D
:100FC000E9FF19C0F3FF1A50BDEC3AF00D50010FC4
:100FD0000C6E000E19200E6E000E1A20E56A0CC071
:100FE000E9FF0EC0F3FFBDEC3AF00DC00CF019C0E4
:100FF0000EF01AC00FF013C010F0105010E00CC02B
:10100000E9FF0EC0F3FF0F503AEC3AF0176E17509D
:1010100006E00C2A02E30E4A0F2A1006EED710C093
:1010200013F014501EE109C00CF00AC00EF010C0FD
:101030000FF00F5010E01550E56E0250E56E0150B4
:10104000E56E0050E56E73EC28F0040EE1260C4AC4
:101050000E2A0F06EED70CC009F00EC00AF00FC022
:1010600013F016C00CF00DC00DF019C00EF01AC030
:101070000FF009C010F00AC015F00DC0E9FF0EC056
:10108000F3FF0F503AEC3AF0166E1650D8B43ED03B
:101090000CC016F0176A161E171E1650171005E022
:1010A0000CC016F00C06165031E00DC0E9FF0EC062
:1010B000F3FF0F503AEC3AF0116E125010E011505D
:1010C000E56E59EC39F0166EE652165004E0DF0E6C
:1010D0001114166E02D011C016F016C011F0115086
:1010E000E56E0250E56E0150E56E0050E56E73EC62
:1010F00028F0040EE1260D2A02E30E4A0F2A104AB8
:10110000152A1350D8B4B9D71306B7D710C009F0B1
:1011100015C00AF014502BE010C00CF015C00DF0F3
:1011200013C00EF00E501FE0200EE56E0250E56E6B
:101130000150E56E0050E56E73EC28F0040EE126D8
:101140000C4A0D2A0E06EED70B50E56E0250E56EE6
:101150000150E56E0050E56E73EC28F0040EE126B8
:10116000094A0A2A04D00CC009F00DC00AF0032A6B
:1011700002E3044A052A78EF05F00AC0F3FF09509C
:10118000E4CF1EF0E4CF1DF0E4CF1CF0E4CF1BF061
:10119000E4CF1AF0E4CF19F0E4CF18F0E4CF17F061
:1011A000E4CF16F0E4CF15F0E4CF14F0E4CF13F061
:1011B000E4CF12F0E4CF11F0E4CF10F0E4CF0FF061
:1011C000E4CF0EF0E4CF0DF0E4CF0CF0E4CF0BF061
:1011D000E4CF0AF0E4CF09F0E4CF08F0E4CF07F061
:1011E000E4CF06F0E4CF05F0E4CF04F0E4CF03F061
:1011F000E4CF02F0E4CF01F0E4CF00F0E4CFD9FF78
:1012000012003C4E4F20464C4F41543E0000D9CF77
:10121000E5FFE1CFD9FF00C0E5FF01C0E5FF02C057
:10122000E5FF03C0E5FF04C0E5FF05C0E5FF06C01C
:10123000E5FF07C0E5FF08C0E5FF09C0E5FF0AC0FC
:10124000E5FF0BC0E5FF0CC0E5FF0DC0E5FF020E9A
:10125000DBCF00F0030EDBCF01F0040EDBCF02F09A
:101260000050090F066E000E0120076E000E0220CE
:10127000086E0B6E07500A6E0650096EE56A0D0E79
:10128000E56E0B50E56E0A50E56E0950E56E800E76
:10129000E56E070EE56E300EE56E8BEC2AF0080E5B
:1012A000E12600C009F001C00AF002C00BF0E56AB7
:1012B000E56E0B50E56E0A50E56E0950E56E800E46
:1012C000E56E040EE56E810EE56E8BEC2AF0080EDD
:1012D000E12681C403F00350010A04E00350030A2D
:1012E00001E018D107014551036E4651046E070114
:1012F0003851056E3951096E0550035C0701816F45
:1013000009500458826F070145510701386F0701E2
:1013100046510701396F0701475107013A6F07012D
:10132000485107013B6F070181518211D8A47ED03B
:1013300029EC37F0036EF3CF04F0F4CF05F0E9CFDA
:1013400009F007013D510A6E3E510B6E3F510C6E84
:1013500040510D6E0A50035E0B50045A0C50055A52
:101360000D50095A03500401FC6F0450FD6F0550E5
:10137000FE6F7F0E0914FF6F07013CB125D00401F9
:10138000FD35FF31046EFE31036E04340432033246
:10139000000E04BEFF0E096E056E86C40AF00B6ACD
:1013A0000C6A0D6A0D50800FF36E0950800FF35CCC
:1013B00008E105500C5C05E104500B5C02E10350B0
:1013C0000A5C02E207013C8107013CB149D034C705
:1013D00003F035C704F036C705F037C709F004013C
:1013E000FF51800FF36E0950800FF35C08E1055048
:1013F000FE5D05E10450FD5D02E10350FC5D08E285
:1014000003C0FCF404C0FDF405C0FEF409C0FFF401
:10141000070149A304D0010E036E046A02D00368D9
:10142000046803C081F704C082F71AD007013C9119
:1014300041C7FCF442C7FDF443C7FEF444C7FFF4C0
:101440000401FC510701346F0401FD510701356FA0
:101450000401FE510701366F0401FF510701376F88
:101460000401FF51800F800F08E1000EFE5D05E1D1
:10147000000EFD5D02E1010EFC5D06E20601F56B6A
:10148000F66BF76BF86B46D00401FC51036EFD510F
:10149000046EFE51056EFF51E56E0550E56E045079
:1014A000E56E0350E56E010EE56E000EE56AE56A35
:1014B000E56AC9EC26F0036EF3CF04F0F4CF05F033
:1014C000E9CF09F0080EE12681C70AF082C70BF0C8
:1014D000E86A070182BFFF0E0C6E0D6E0950E56EC3
:1014E0000550E56E0450E56E0350E56E0D50E56E57
:1014F0000C50E56E0B50E56E0A50E56E8FEC20F057
:101500000601F56FF3CFF6F6F4CFF7F6E9CFF8F66C
:10151000080EE126020E0401815DD8A036D1070134
:1015200049A133D10050230F036E000E0120046E39
:10153000000E0220E56E0450E56E0350E56E0EECE1
:1015400000F0030EE1260050230F036E000E012071
:10155000046E000E0220056E020E0326000E042209
:10156000052203C0E9FF04C0F3FF055063EC38F027
:10157000F3CF04F0F4CF05F0E9CF09F00450036E87
:101580000550046E0950056E096A05BE0968070119
:101590004551035C0601F96F0701465104580601E5
:1015A000FA6F0701475105580601FB6F07014851C3
:1015B00009580601FC6FD880FCAFD89022E30401E3
:1015C000831D046E821D036E034A042AE86A04BE6A
:1015D000FF0E056E096E0601FC51800FF36E095077
:1015E000800FF35C08E10550FB5D05E10450FA5DF6
:1015F00002E10350F95D05E30601F96BFA6BFB6B41
:10160000FC6B0601FC51800F800F08E1000EFB5DB2
:1016100005E1000EFA5D02E1010EF95D1EE382C4F0
:1016200003F083C404F0E86A040183BFFF0E056E73
:10163000800FF36E0601FC51800FF35C08E1FB5153
:10164000055C05E1FA51045C02E1F951035C05E334
:101650000601F96BFA6BFB6BFC6B0401875109E027
:10166000E86CD8900601F937FA37FB37FC37010FE1
:10167000F9E30601FC51800F800F08E1000EFB5DCD
:1016800005E1800EFA5D02E1000EF95D07E3060157
:10169000F9697F0EFA6FFB6BFC6B14D00601FC51ED
:1016A000800F810F08E1FF0EFB5D05E1800EFA5D02
:1016B00002E1000EF95D06E20601F96B800EFA6F99
:1016C000FB69FC690050330F036E000E0120046EAD
:1016D000000E0220056E0601F951096EFA51E56E01
:1016E0000950E56E0550E56E0450E56E0350E56E59
:1016F000E5EC11F0050EE12604018151030A23E116
:101700000050330F036E000E0120046E000E022005
:10171000056E0B0E0326000E0422052203C0E9FF0E
:1017200004C0F3FF055063EC38F0F3CF04F0F4CFBE
:1017300005F00450036E0550046E03500701306F2E
:101740000450316F22D00050330F036E000E012081
:10175000046E000E0220056E0B0E0326000E0422FE
:10176000052203C0E9FF04C0F3FF055063EC38F025
:10177000F3CF04F0F4CF05F00450036E0550046E6F
:1017800003500701326F0450336F81C403F00350DC
:10179000010A04E00350030A01E07DD030C703F0E2
:1017A00031C704F0E86A070131BFFF0E056E096E0C
:1017B0000601F551035C0601F96F0601F651045864
:1017C0000601FA6F0601F75105580601FB6F060185
:1017D000F85109580601FC6F800F800F08E1000ED8
:1017E000FB5D05E1800EFA5D02E1000EF95D07E3A5
:1017F0000601F9697F0EFA6FFB6BFC6B14D00601D2
:10180000FC51800F810F08E1FF0EFB5D05E1800EAA
:10181000FA5D02E1000EF95D06E20601F96B800E49
:10182000FA6FFB69FC690050440F036E000E012043
:10183000046E000E0220056E0601F951096EFA5180
:10184000E56E0950E56E0550E56E0450E56E0350F7
:10185000E56EE5EC11F0050EE126440E0026000EC3
:10186000012202220B0E0026000E0122022200C0DD
:10187000E9FF01C0F3FF025063EC38F0F3CF01F051
:10188000F4CF02F00150006E0250016E00500701CB
:10189000326F0150336F0850086EE56A0D0EE56E29
:1018A000800EE56E070EE56E300EE56E0850E56EB3
:1018B0000750E56E0650E56E8BEC2AF0080EE12627
:1018C000E4CF0DF0E4CF0CF0E4CF0BF0E4CF0AF05E
:1018D000E4CF09F0E4CF08F0E4CF07F0E4CF06F05E
:1018E000E4CF05F0E4CF04F0E4CF03F0E4CF02F05E
:1018F000E4CF01F0E4CF00F0E4CFD9FF120025647B
:101900002025640A000000C0E5FF01C0E5FF02C019
:10191000E5FF03C0E5FF04C0E5FF05C0E5FF06C025
:10192000E5FFE1EC23F0AFEC16F029EC37F0006EA8
:10193000F3CF01F0F4CF02F0E9CF03F004017C51C2
:10194000005E7D51015A7E51025A7F51035A039E17
:101950003F0E035C08E1FF0E025C05E1FF0E015C37
:1019600002E1FF0E005CD8B02BEF0FF029EC37F04E
:10197000F3CF01F0F4CF02F0E9CF03F0880F0401B8
:101980007C6F130E01207D6F000E02207E6F000E13
:1019900003207F6FFFEC18F0C8EC39F0006EF3CF36
:1019A00001F0F6EC33F00F0E036E230E026E800E84
:1019B000046E000EE56A0EEC25F0056EF3CF06F01E
:1019C000E6520650E56E0550E56E0450E56E035094
:1019D000E56E0250E56E5EEC36F0050EE126040E73
:1019E000036EE80E026E800E046E010EE56E0EECC4
:1019F00025F0056EF3CF06F0E6520650E56E055071
:101A0000E56E0450E56E0350E56E0250E56E5EEC47
:101A100036F0050EE1260401035106E1000E015CDB
:101A200002E1030E005C03E38B82898002D08B927B
:101A30008990800EE56E0F0EE56E230EE56E0EECBE
:101A400000F0030EE126800EE56E040EE56EE80E52
:101A5000E56E0EEC00F0030EE1260F012651006E3C
:101A60002751016E005004019E6F01509F6F0401C9
:101A7000EB51006EEC51016E005006010B6F0150EE
:101A80000C6F07C0E5FFF2CF07F0F29E0401A951E9
:101A900007013D6F0401AA5107013E6F0401AB51DC
:101AA00007013F6F0401AC510701406F0401AD51C4
:101AB0000701416F0401AE510701426F0401AF51AC
:101AC0000701436F0401B0510701446F0401B15194
:101AD0000701456F0401B2510701466F0401B3517C
:101AE0000701476F0401B4510701486F0401B55164
:101AF0000701496F0401AD6BAE6BAF6BB06B07BEF6
:101B0000F28EE4CF07F0800EE56E040EE56E930EC4
:101B1000E56E07EC09F0030EE1269EC483F79FC42F
:101B200084F707018451800F7C0F02E1000E835D72
:101B300004E307018369030E846F07018451800F5A
:101B4000840F02E1010E835D05E2010E0701836F40
:101B5000FC0E846F07018451800F800F02E1010E9B
:101B6000835D10E307018451800FF36E04019751E8
:101B7000800FF35C03E196510701835D03E20701E7
:101B8000836B846BD880070184AFD89015E3040180
:101B9000971D016E961D006E004A012A0150800FAC
:101BA000F36E07018451800FF35C02E18351005C06
:101BB00003E20701836B846B04019AA309D0B5A5E6
:101BC00007D0D880070184AFD89002E3836B846B81
:101BD000D880070184AFD89007E3841D016E831D70
:101BE000006E004A012A04D083C700F084C701F0C8
:101BF00000C085F701C086F707018551020BE84058
:101C0000010BE838E844F46E0F015451DF0BF41077
:101C1000546F07018551010B010BE838F46E0F0179
:101C20005451EF0BF410546F070186358631016E65
:101C30008531006E01340132003200500F01556FC2
:101C4000D880070184AFD89003E3899A898E02D0A7
:101C5000899E898A07C0E5FFF2CF07F0F29E060150
:101C6000165107013D6F0601175107013E6F06012E
:101C7000185107013F6F060119510701406F060116
:101C80001A510701416F06011B510701426F0601FE
:101C90001C510701436F06011D510701446F0601E6
:101CA0001E510701456F06011F510701466F0601CE
:101CB00020510701476F060121510701486F0601B6
:101CC00022510701496F06011A6B1B6B1C6B1D6BC0
:101CD00007BEF28EE4CF07F0800EE56E060EE56ECD
:101CE000000EE56E07EC09F0030EE1260BC683F744
:101CF0000CC684F707018451800F7C0F02E1000EAF
:101D0000835D04E307018369030E846F0701845137
:101D1000800F840F02E1010E835D05E2010E0701D1
:101D2000836FFC0E846F07018451800F800F02E1E6
:101D3000010E835D10E307018451800FF36E0601ED
:101D40000451800FF35C03E103510701835D03E25B
:101D50000701836B846BD880070184AFD89015E3AB
:101D60000601041D016E031D006E004A012A015088
:101D7000800FF36E07018451800FF35C02E1835101
:101D8000005C03E20701836B846B060107A309D0A3
:101D900022A507D0D880070184AFD89002E3836BD7
:101DA000846BD880070184AFD89007E3841D016E4F
:101DB000831D006E004A012A04D083C700F084C747
:101DC00001F000C085F701C086F707018551020BBD
:101DD000E840010BE838E844F46EBD50DF0BF41026
:101DE000BD6E8551010B010BE838F46EBD50EF0B51
:101DF000F410BD6E86358631016E8531006E01347A
:101E0000013200320050BE6ED880070184AFD890F6
:101E100003E38A908A8A02D08A9A8A808FC700F068
:101E200007018F2B060E005C16E306010C51E56ED0
:101E30000B51E56E04019F51E56E9E51E56E000E5B
:101E4000E56E230EE56EBA0EE56E7CEC34F0070EFF
:101E5000E12607018F6BE4CF06F0E4CF05F0E4CF75
:101E600004F0E4CF03F0E4CF02F0E4CF01F0E4CFDC
:101E700000F0120000C0E5FF01C0E5FF02C0E5FF71
:101E800003C0E5FF05C0E5FFFEEC3AF094928B92AB
:101E90009290899029EC37F0F3CF01F0F4CF02F063
:101EA000E9CF03F0880F04017C6F130E01207D6FD2
:101EB000000E02207E6F000E03207F6F938C810E38
:101EC000006E0F0E016E0F0E036E380E00260350CB
:101ED00001220F0E036E800E005E0350015A810E28
:101EE000026E0F0E036E0F0E056E380E02260550A1
:101EF00003220F0E056E800E025E0550035A02C0CB
:101F0000E9FF03C0EAFFEFCF02F0029C00C0E9FF47
:101F100001C0EAFF02C0EFFF08EC2AF09284800EB5
:101F2000006E0F0E016E0F0E036E380E002603506A
:101F30000122800E026E0F0E036E800E005E0350B3
:101F4000015A0F0E056E380E0226055003220F0EA1
:101F5000056E800E025E0550035A02C0E9FF03C001
:101F6000EAFFEFCF02F0028400C0E9FF01C0EAFF00
:101F700002C0EFFF020EE56E000EE56ACEEC2DF01A
:101F8000E652E6529386810E006E0F0E016E0F0E22
:101F9000036E380E0026035001220F0E036E800ED2
:101FA000005E0350015A810E026E0F0E036E0F0E7B
:101FB000056E380E0226055003220F0E056E800EA8
:101FC000025E0550035A02C0E9FF03C0EAFFEFCFEB
:101FD00002F0028600C0E9FF01C0EAFF02C0EFFF85
:101FE000090EE56E010EE56ECEEC2DF0E652E652DE
:101FF000899A899E898C8982929A929E929C9292C9
:1020000004019283800E006E040E016E0F0E036EAB
:10201000380E0026035001220F0E036E800E005E64
:102020000350015A800E026E040E036E0F0E056EF1
:10203000380E0226055003220F0E056E800E025E3A
:102040000550035A02C0E9FF03C0EAFFEFCF02F0D8
:10205000029200C0E9FF01C0EAFF02C0EFFF9283D5
:10206000800E006E040E016E0F0E036E380E0026F9
:10207000035001220F0E036E800E005E0350015AC2
:10208000800E026E040E036E0F0E056E380E0226D1
:10209000055003220F0E056E800E025E0550035A96
:1020A00002C0E9FF03C0EAFFEFCF02F0029200C0D6
:1020B000E9FF01C0EAFF02C0EFFF9283800E006ECD
:1020C000040E016E0F0E036E380E0026035001221F
:1020D0000F0E036E800E005E0350015A800E026EDA
:1020E000040E036E0F0E056E380E022605500322F5
:1020F0000F0E056E800E025E0550035A02C0E9FF06
:1021000003C0EAFFEFCF02F0029200C0E9FF01C076
:10211000EAFF02C0EFFF0C0E0F01546F0F01549B3A
:1021200054990F01556B92980401936B020E946FB2
:10213000956B0A0E966F976B100E986F070E996F3E
:102140009A919A83800EE56E040EE56EB60EE56EEA
:1021500038EC31F0030EE126800EE56E040EE56EDC
:10216000D70EE56EA2EC25F0030EE126800EE56E9B
:10217000040EE56EC60EE56EA2EC25F0030EE12618
:102180000401B16BB26BB36BB46BB591B5959C6B3D
:102190009D6B9E6B9F6BA46BA56BA66BA76B8A90C8
:1021A0008A9A8A828A889390939A93929398040148
:1021B0009283800E006E040E016E0F0E036E380EB9
:1021C0000026035001220F0E036E800E005E0350A6
:1021D000015A800E026E040E036E0F0E056E380E4D
:1021E0000226055003220F0E056E800E025E05507A
:1021F000035A02C0E9FF03C0EAFFEFCF02F00292E8
:1022000000C0E9FF01C0EAFF02C0EFFF9283800E29
:10221000006E040E016E0F0E036E380E0026035082
:1022200001220F0E036E800E005E0350015A800ED5
:10223000026E040E036E0F0E056E380E0226055058
:1022400003220F0E056E800E025E0550035A02C077
:10225000E9FF03C0EAFFEFCF02F0029200C0E9FFFE
:1022600001C0EAFF02C0EFFF9283800E006E040EF1
:10227000016E0F0E036E380E0026035001220F0E62
:10228000036E800E005E0350015A800E026E040E33
:10229000036E0F0E056E380E0226055003220F0E38
:1022A000056E800E025E0550035A02C0E9FF03C0AE
:1022B000EAFFEFCF02F0029200C0E9FF01C0EAFF9F
:1022C00002C0EFFF0C0EBD6EBD9ABD98BE6AB96A22
:1022D000B98293940601006B020E016F026B0A0E25
:1022E000036F046B100E056F070E066F07910783CF
:1022F000800EE56E060EE56E230EE56E38EC31F0CD
:10230000030EE126800EE56E060EE56E440EE56EC8
:10231000A2EC25F0030EE126800EE56E060EE56EBA
:10232000330EE56EA2EC25F0030EE12606011E6BCE
:102330001F6B206B216B22912295096B0A6B0B6B33
:102340000C6B116B126B136B146B800EE56E0F0E22
:10235000E56E230EE56E38EC31F0030EE126800EBB
:10236000E56E040EE56EE80EE56E38EC31F0030E16
:10237000E1260401F6697F0EF76FF469F56F0F012E
:102380003169326F2F69306FB00E0401EE6F040EA9
:10239000EF6FB00E0F01296F040E2A6F8EEC2BF039
:1023A000DCEC3AF0E4CF05F0E4CF03F0E4CF02F048
:1023B000E4CF01F0E4CF00F0120043502025642068
:1023C00025640A00430025630000D9CFE5FFE1CF73
:1023D000D9FF00C0E5FF01C0E5FF02C0E5FF03C073
:1023E000E5FF04C0E5FF05C0E5FF06C0E5FF07C047
:1023F000E5FF08C0E5FF09C0E5FF0AC0E5FF0BC027
:10240000E5FF0CC0E5FF0DC0E5FF0EC0E5FF020EC5
:10241000DBCF00F0030EDBCF01F0040EDBCF02F0C8
:10242000050EDBCF03F0060EDBCF04F002500A6E80
:102430000150096E0050086EE56A110EE56E0A50F3
:10244000E56E0950E56E0850E56E800EE56E040EEF
:10245000E56E250EE56E8BEC2AF0080EE12634C4FD
:1024600005F035C406F0E86A040135BFFF0E076EBB
:1024700007015E6F06505D6F05505C6F5B6B03C0BC
:1024800005F004C006F0E86A04BEFF0E076E086E91
:1024900025C409F0E56AE56AE56A0950E56E085069
:1024A000E56E0750E56E0650E56E0550E56E8FEC63
:1024B00020F00701576FF3CF58F7F4CF59F7E9CF62
:1024C0005AF7080EE12604012651D8B4E3D004508F
:1024D000800F800F02E1010E035C25E304012B5104
:1024E000800F7C0F08E1000E2A5D05E1000E295DDA
:1024F00002E1000E285D17E204013351800FF36EF4
:1025000007015E51800FF35C0DE15D510401325D06
:1025100009E107015C510401315D04E107015B51F0
:102520000401305D33E3D88004AED890D8A043D006
:1025300004012B51800F840F08E1000E2A5D05E194
:10254000000E295D02E1010E285D35E307015E1DE5
:102550000C6E5D1D0B6E5C1D0A6E5B1D096E092AFB
:1025600004E10A2A02E10B4A0C2A0C50800FF36E98
:1025700004013351800FF35C08E132510B5C05E13B
:1025800031510A5C02E13051095C15E20550040149
:102590002825096E065029210A6E07502A210B6E44
:1025A00008502B210C6E0950286F0A50296F0B50D0
:1025B0002A6F0C502B6F0350041031E128C403F034
:1025C00029C404F02AC409F02BC40AF0E56AE56ABC
:1025D000E56A100EE56E0A50E56E0950E56E04508E
:1025E000E56E0350E56E75EC22F00B6EF3CF0CF048
:1025F000F4CF0DF0E9CF0EF0080EE1260B50035E8C
:102600000C50045A0D50095A0E500A5A0350040136
:10261000286F0450296F09502A6F0A502B6F04014C
:1026200028390F0B036E2939046EF00B041A0326A8
:102630002A51E838F00B04122A390F0B096E2B3996
:102640000A6EF00B0A1A0926F00E0AB60A2626C4EC
:102650000BF0E56AE56AE56A0B50E56E0A50E56E37
:102660000950E56E0450E56E0350E56E8FEC20F0E6
:10267000036EF3CF04F0F4CF09F0E9CF0AF0080EAF
:10268000E1260350070157270450582309505923C6
:102690000A505A2304012751D8B465D02C51055C47
:1026A00007015F6F04012D5106580701606F040197
:1026B0002E5107580701616F04012F510858070177
:1026C000626F800F800F08E1010E615D05E1000E71
:1026D000605D02E1000E5F5D06E307015F6960690E
:1026E000616B626B13D007016251800F810F08E1AB
:1026F000FF0E615D05E1000E605D02E1000E5F5DB1
:1027000005E207015F6B606B6169626907015F51F8
:102710005F25036E6035046E6135096E62350A6EA1
:1027200027C40BF0E56AE56AE56A0B50E56E0A50CE
:10273000E56E0950E56E0450E56E0350E56E8FECD2
:1027400020F0036EF3CF04F0F4CF09F0E9CF0AF0E4
:10275000080EE1260350070157270450582309505B
:1027600059230A505A23055004012C6F06502D6F2F
:1027700007502E6F08502F6F07015E51800FF36EC8
:1027800007015A51800FF35C0DE1595107015D5D5E
:1027900009E10701585107015C5D04E10701575148
:1027A00007015B5D11E207015B510401306F070116
:1027B0005C510401316F07015D510401326F070163
:1027C0005E510401336F3AD007015E1D066E5D1D38
:1027D000056E5C1D046E5B1D036E032A04E1042A72
:1027E00002E1054A062A07015A51800FF36E06508E
:1027F000800FF35C08E10550595D05E10450585D18
:1028000002E10350575D0AE203500401306F0450A7
:10281000316F0550326F0650336F10D0070157519A
:102820000401306F070158510401316F07015951FC
:102830000401326F07015A510401336FE56A110E2A
:10284000E56E800EE56E040EE56E250EE56E025017
:10285000E56E0150E56E0050E56E8BEC2AF0080E37
:10286000E126E4CF0EF0E4CF0DF0E4CF0CF0E4CF9E
:102870000BF0E4CF0AF0E4CF09F0E4CF08F0E4CFA6
:1028800007F0E4CF06F0E4CF05F0E4CF04F0E4CFA6
:1028900003F0E4CF02F0E4CF01F0E4CF00F0E4CFA6
:1028A000D9FF1200D9CFE5FFE1CFD9FF00C0E5FF86
:1028B00001C0E5FF02C0E5FF03C0E5FF04C0E5FF7E
:1028C00005C0E5FF06C0E5FF07C0E5FF08C0E5FF5E
:1028D00009C0E5FF0AC0E5FF0BC0E5FF0CC0E5FF3E
:1028E000020EDBCF00F0030EDBCF01F0040EDBCFD6
:1028F00002F0036A046A53EC37F0056EFE0A01E049
:1029000077D08BEC31F053EC37F0066E030E065C9B
:10291000D8A05AD0060E065CD8B056D0FD0E0624BC
:10292000076EFA6AFB6A0734FA36E834FA36FC0BAB
:10293000400FE56E290EFA22000EFB22E450F96EDC
:10294000A6EF14F0B8EF14F0D1EF14F00050090F17
:10295000076E000E0120086E000E022007C0E9FF7E
:1029600008C0F3FF9CEC39F0036EF3CF04F02CD0D9
:102970000050090F076E000E0120086E000E0220A5
:10298000096E020E0726000E0822092207C0E9FF81
:1029900008C0F3FF09509CEC39F0036EF3CF04F04C
:1029A00013D00050070F076E000E0120086E000EB6
:1029B000022007C0E9FF08C0F3FF3AEC3AF0010B30
:1029C000076E07C003F0046A06C007F00450E56E06
:1029D0000350E56EE56A0750E56E000EE56E180ED1
:1029E000E56EFE0EE56E7CEC34F0070EE1269AD122
:1029F000080E055CD8B096D1FA6AFB6A0534FA363F
:102A0000E834FA36FC0B160FE56E2A0EFA22000E99
:102A1000FB22E450F96E1BEF15F036EF15F048EF8E
:102A200015F05AEF15F08CEF15F0C2EF15F0E1EF4D
:102A300015F03EEF16F00050230F056E000E01203A
:102A4000076E000E0220E56E0750E56E0550E56E3C
:102A50004AEC1BF0030EE126020EE56E00C0E9FF12
:102A600001C0F3FF0250BDEC3AF05CD10050330FCF
:102A7000056E000E0120076E000E0220E56E075065
:102A8000E56E0550E56E30EC1EF0030EE1264AD1EE
:102A90000050440F056E000E0120076E000E02204C
:102AA000E56E0750E56E0550E56E30EC1EF0030E46
:102AB000E12638D10050090F056E000E0120076E87
:102AC000000E0220086E53EC37F00C6E0B6AE56ABC
:102AD0000CC0F4FF05C0E9FF07C0F3FF085084EC09
:102AE0003AF053EC37F00A6A0B260A500C220BC05E
:102AF000E5FF0CC0F4FF05C0E9FF07C0F3FF085075
:102B000084EC3AF0010EE56E00C0E9FF01C0F3FF6E
:102B10000250BDEC3AF006D10050090F056E000ED0
:102B20000120076E000E0220086E020E0526000E20
:102B30000722082253EC37F00C6E0B6AE56A0CC0D2
:102B4000F4FF05C0E9FF07C0F3FF085084EC3AF03A
:102B500053EC37F00A6A0B260A500C220BC0E5FF33
:102B60000CC0F4FF05C0E9FF07C0F3FF085084EC78
:102B70003AF0E56A00C0E9FF01C0F3FF0250BDEC86
:102B80003AF0D0D00050070F056E000E0120076EFE
:102B9000000E0220086E53EC37F0010BF46E05C0F6
:102BA000E9FF07C0F3FF08503AEC3AF0FE0BF410CF
:102BB000E56E05C0E9FF07C0F3FF0850BDEC3AF031
:102BC000B1D053EC37F0066E0050160F056E000EB4
:102BD0000120076E000E0220086E05500C0F096ED2
:102BE000000E07200A6E000E08200B6E0650D880DB
:102BF000E866D8900C6A0C360C50D880E866D890FD
:102C00000C6A0C360C50010BF46E09C0E9FF0AC0C7
:102C1000F3FF0B503AEC3AF0FE0BF410E56E09C0EE
:102C2000E9FF0AC0F3FF0B50BDEC3AF00650010A71
:102C300001E078D0080E0526000E07220822E56A7A
:102C4000F46AF66AF76A05C0E9FF07C0F3FF0850A7
:102C500029EC3AF00050230F056E000E0120066E9D
:102C6000000E0220E56AE56AE56E0650E56E055045
:102C7000E56E0DEC2BF0050EE12654D053EC37F049
:102C8000046E036A53EC37F0066A032606500422EA
:102C90000050160F056E000E0120066E000E022079
:102CA000076E05500C0F086E000E0620096E000E10
:102CB00007200A6E08C0E9FF09C0F3FF3AEC3AF0BA
:102CC000E880E56E08C0E9FF09C0F3FF0A50BDECDB
:102CD0003AF0080E0526000E0622072203C008F06F
:102CE00004C009F008C0E5FF09C0F4FFF66AF76AFE
:102CF00005C0E9FF06C0F3FF075029EC3AF0230EA8
:102D00000026000E012202220450E56E0350E56EFB
:102D10000250E56E0150E56E0050E56E69EC2FF053
:102D2000050EE126E4CF0CF0E4CF0BF0E4CF0AF07F
:102D3000E4CF09F0E4CF08F0E4CF07F0E4CF06F0E9
:102D4000E4CF05F0E4CF04F0E4CF03F0E4CF02F0E9
:102D5000E4CF01F0E4CF00F0E4CFD9FF120000C0CF
:102D6000E5FF01C0E5FF02C0E5FF03C0E5FF04C0C9
:102D7000E5FF05C0E5FF06C0E5FF07C0E5FF08C0A9
:102D8000E5FF09C0E5FF0AC0E5FFC2A204D00401C7
:102D90001051E8EF18F004011151D8B42FD10401FB
:102DA0001051020DF450016EF3CF00F0E00E00263A
:102DB000000E012200C0E9FF01C0EAFFEECF00F0E3
:102DC000EFCF01F0000E1025026E036A070E0322FA
:102DD00002C0E9FF03C0EAFFEFCF02F00250FF0A92
:102DE00001E166D002380F0B036E920E0324046ECD
:102DF000056A0F0E0522066A920E03260F0E0622A2
:102E000003C0E9FF06C0EAFFEFCF03F00250066EF1
:102E1000070E0616010E076E06500DE006E6E86C7A
:102E2000D8900736010FFDE306D0D89007BED880B2
:102E30000732010FFBE3071C066E0350061604C0A1
:102E4000E9FF05C0EAFF06C0EFFF02380F0B036E73
:102E5000890E0324046E056A0F0E0522066A890E88
:102E600003260F0E062203C0E9FF06C0EAFFEFCFDC
:102E700003F00250066E070E0616010E076E06508E
:102E80000DE006E6E86CD8900736010FFDE306D0AA
:102E9000D89007BED8800732010FFBE3071C066EEF
:102EA0000350061604C0E9FF05C0EAFF06C0EFFFA5
:102EB00004011051020DF450046EF3CF03F0E00E44
:102EC0000326000E042201340130066E0030056E28
:102ED0000634063205320634063205320550005CEF
:102EE000056E06500158066EC3CF07F0086A0750FA
:102EF000052608500622C4CF07F0086A07500A6E5C
:102F0000096A095005260A50062203C0E9FF04C0D9
:102F1000EAFF05C0EEFF06C0EFFF04010C51010AF5
:102F200001E06AD004011051020DF450046EF3CF99
:102F300003F0E00E0324056E000E0420066E05C0AB
:102F4000E9FF06C0EAFFEECF00F0EFCF01F0750E0B
:102F50000326060E042203C0E9FF04C0EAFFEECFF9
:102F600005F0EFCF06F09C0E0526D8A0060601500E
:102F7000800FF36E0650800FF35C02E10550005C99
:102F80000EE20050640F056E000E0120066E03C0B5
:102F9000E9FF04C0EAFF05C0EEFF06C0EFFF040131
:102FA0001051020DF450046EF3CF03F0950E03267A
:102FB000060E042203C0E9FF04C0EAFFEECF05F0CD
:102FC000EFCF06F0640E0526D8B0062A0650800F13
:102FD000F36E0150800FF35C02E10050055C0CE2DF
:102FE0009C0E0026D8A0010603C0E9FF04C0EAFF3A
:102FF00000C0EEFF01C0EFFF0401116B0401102BB4
:10300000100E105D01E3106B04011039E8441F0B32
:10301000006E016A7D0E0026070E012200C0E9FF46
:1030200001C0EAFFEFCF00F010C401F0070E011657
:10303000010E036E000E046E015006E0E86CD8909D
:1030400003360436010FFCE3056A005003160550F1
:10305000041603500410D880E866D890036A03363B
:103060000350D8A4B3D0100E04011025006E016ADD
:10307000070E012200C0E9FF01C0EAFFEFCF00F018
:103080000044E844FC0B016E0128C26E000E1025BE
:10309000006E016A070E012200C0E9FF01C0EAFFCD
:1030A000EFCF02F00250FF0A01E18CD002380F0B83
:1030B000006E920E0024016E036A0F0E0322046A52
:1030C000920E00260F0E042200C0E9FF04C0EAFFA2
:1030D000EFCF00F00250046E070E0416010E056ECD
:1030E00004500DE006E6E86CD8900536010FFDE3CC
:1030F00006D0D89005BED8800532010FFBE3005002
:10310000051201C0E9FF03C0EAFF05C0EFFF380E5A
:10311000006E0F0E016E02380F0B036E046A03502F
:10312000002604500122380E056E0F0E066E055063
:1031300003260650042203C0E9FF04C0EAFFEFCFD4
:1031400003F0070E0216010E046E02500DE006E6B3
:10315000E86CD8900436010FFDE306D0D89004BE89
:10316000D8800432010FFBE30350041200C0E9FFD2
:1031700001C0EAFF04C0EFFF0F014583000000001B
:1031800045930F0144930BC0E5FFF2CF0BF0F29E85
:10319000448100000000000000000000000000006A
:1031A000000000000000000000000000000000001F
:1031B0000000000000000000000044910BBEF28EF1
:1031C000E4CF0BF0C282010E0401116F0401105113
:1031D000E4CF0AF0E4CF09F0E4CF08F0E4CF07F041
:1031E000E4CF06F0E4CF05F0E4CF04F0E4CF03F041
:1031F000E4CF02F0E4CF01F0E4CF00F0120000C011
:10320000E5FF01C0E5FF02C0E5FF03C0E5FF04C024
:10321000E5FF05C0E5FF06C0E5FF07C0E5FF08C004
:10322000E5FF09C0E5FF0AC0E5FF0BC0E5FF0CC0E4
:10323000E5FF006A016A026A040E025CD8B0ECD1B4
:1032400001C003F0012A100E035CD8B0E5D10401DF
:10325000122B100E125D01E3126B04011239E844C7
:103260001F0B036E046A7D0E0326070E042203C0A3
:10327000E9FF04C0EAFFEFCF03F012C404F0070E29
:103280000416010E056E000E066E045006E0E86C92
:10329000D89005360636010FFCE3076A0350051681
:1032A0000750061605500610D880E866D890056AC3
:1032B00005360550D8A4C0D704011251020DF450B0
:1032C000046EF3CF03F0E00E0324056E000E04201D
:1032D000066E05C0E9FF06C0EAFFEECF05F0EFCFAE
:1032E00006F00FC407F007A09DD0750E0324076EEB
:1032F000060E0420086E07C0E9FF08C0EAFFEECF03
:1033000007F0EFCF08F00650800FF36E0850800FE3
:10331000F35C02E10750055C03E2056A066A60D0CF
:10332000950E0326060E042203C0E9FF04C0EAFF3F
:10333000EECF03F0EFCF04F00450800FF36E065091
:10334000800FF35C02E10550035C04E205683F0E68
:10335000066E46D00750055C096E085006580A6E86
:10336000E86A0ABEFF0E0B6EE56E0B50E56E0A5062
:10337000E56E0950E56EE56AE56A400EE56E000E01
:10338000E56A8FEC20F0096EF3CF0AF0F4CF0BF072
:10339000E9CF0CF0080EE1260750035C076E0850D9
:1033A0000458086EE86A08BEFF0E036EE56E03500F
:1033B000E56E0850E56E0750E56E0C50E56E0B505B
:1033C000E56E0A50E56E0950E56EC9EC26F0036E15
:1033D000F3CF04F0080EE1260350056E0450066E8C
:1033E00004010E51800FF36E0650800FF35C02E172
:1033F00005500D5D03E3056A066A14D004010D5102
:10340000FF08036E3F0E0E55046E0650800FF36EDC
:103410000450800FF35C02E10350055C03E3056890
:103420003F0E066E04011251020DF450046EF3CFEC
:1034300003F0550E0326060E042203C0E9FF04C064
:10344000EAFFEECF03F0EFCF04F00350055C036E0C
:1034500004500658046ED88004AED89004E3041ECD
:10346000036CD8B4042A022A04010E51800FF36EB3
:103470000450800FF35C02E103500D5DD8B0DCD640
:1034800004011251020DF450086EF3CF07F0550EEF
:103490000726060E082207C0E9FF08C0EAFF05C09C
:1034A000EEFF06C0EFFF0FC407F007A459D012517A
:1034B000020DF450086EF3CF07F0B50E0724096E25
:1034C000060E08200A6E09C0E9FF0AC0EAFFEECF27
:1034D0000BF0EFCF0CF00B500C10D8B441D05C0EB9
:1034E0000726040E082207C0E9FF08C0EAFFEECF56
:1034F00007F0EFCF08F00750055C036E0850065840
:10350000046E03101CE00450800F800F02E1010ED6
:10351000035C076A07360C50800F800F02E1010E32
:103520000B5C0B6A0B3607500B1809E109C0E9FF69
:103530000AC0EAFF03C0EEFF04C0EFFF7DD604011E
:103540001251020DF450046EF3CF03F0B50E0326B2
:10355000060E042203C0E9FF04C0EAFFEE6AEF6A28
:103560000FC403F003A244D000500EE100C003F0EA
:10357000002A046A130E0326040E042203C0E9FF86
:1035800004C0EAFF420EEF6E00C003F0002A046A96
:10359000130E0326040E042204011251076E640E5A
:1035A000072603C0E9FF04C0EAFF07C0EFFF00C021
:1035B00003F0002A046A130E0326040E04220650A8
:1035C000076E03C0E9FF04C0EAFF07C0EFFF00C0B9
:1035D00003F0002A046A130E0326040E0422055089
:1035E000076E03C0E9FF04C0EAFF07C0EFFF24D65F
:1035F00012C403F00650E56E0550E56EE56A03500F
:10360000E56E000EE56E550EE56E0A0EE56E7CEC7D
:1036100034F0070EE12610D602C001F000501EE083
:103620000FC402F002A21AD000C002F0002A036AFE
:10363000130E0226040E032202C0E9FF03C0EAFFB4
:103640000A0EEF6E0050E56E800EE56E040EE56E1C
:10365000130EE56E85EC29F0040EE1260150E4CF4F
:103660000CF0E4CF0BF0E4CF0AF0E4CF09F0E4CFA4
:1036700008F0E4CF07F0E4CF06F0E4CF05F0E4CFA4
:1036800004F0E4CF03F0E4CF02F0E4CF01F0E4CFA4
:1036900000F01200D9CFE5FFE1CFD9FF00C0E5FF70
:1036A00001C0E5FF02C0E5FF03C0E5FF04C0E5FF80
:1036B00005C0E5FF06C0E5FF07C0E5FF08C0E5FF60
:1036C00009C0E5FF0AC0E5FF0BC0E5FF020EDBCF36
:1036D00000F0030EDBCF01F0040EDBCF02F0036A33
:1036E000046A53EC37F0056EFE0A01E082D08BECE1
:1036F00031F053EC37F0066E06500EE00650010A2A
:103700001DE00650020A2CE006500A0A3BE0065073
:103710000B0A01E142D05BD00050060F076E000E8D
:103720000120086E000E022007C0E9FF08C0F3FF69
:103730009CEC39F0036EF3CF04F049D000500C0F2D
:10374000076E000E0120086E000E022007C0E9FF80
:1037500008C0F3FF9CEC39F0036EF3CF04F037D0D0
:1037600000500E0F076E000E0120086E000E0220A2
:1037700007C0E9FF08C0F3FF9CEC39F0036EF3CFFC
:1037800004F025D000C0E9FF01C0F3FF02509CEC1B
:1037900039F0036EF3CF04F01AD00050020F076E19
:1037A000000E0120086E000E022007C0E9FF08C0CD
:1037B000F3FF63EC38F0F3CF08F0F4CF09F00850D2
:1037C000076E0950086E0750036E0850046E0450CF
:1037D000E56E0350E56EE56A0650E56E000EE56E97
:1037E000630EE56E0E0EE56E7CEC34F0070EE126FE
:1037F000DBD0055014E00550010A3AE00550020AFA
:1038000001E15FD005500A0A01E184D005500B0A9E
:1038100001E199D005500C0A01E1AED0C5D00050AD
:10382000060F056E000E0120066E000E0220076EC8
:1038300053EC37F00B6E0A6AE56A0BC0F4FF05C063
:10384000E9FF06C0F3FF075084EC3AF053EC37F081
:10385000096A0A2609500B220AC0E5FF0BC0F4FFD3
:1038600005C0E9FF06C0F3FF075084EC3AF09CD096
:1038700000500C0F056E000E0120066E000E022097
:10388000076E53EC37F00B6E0A6AE56A0BC0F4FF63
:1038900005C0E9FF06C0F3FF075084EC3AF053EC93
:1038A00037F0096A0A2609500B220AC0E5FF0BC04F
:1038B000F4FF05C0E9FF06C0F3FF075084EC3AF0BF
:1038C00073D000500E0F056E000E0120066E000E24
:1038D0000220076E53EC37F00B6E0A6AE56A0BC0E4
:1038E000F4FF05C0E9FF06C0F3FF075084EC3AF08F
:1038F00053EC37F0096A0A2609500B220AC0E5FF8B
:103900000BC0F4FF05C0E9FF06C0F3FF075084ECCD
:103910003AF04AD053EC37F0046E036A53EC37F0B8
:10392000066A0326065004220450E56E0350E56E35
:103930000250E56E0150E56E0050E56E5EEC36F02B
:10394000050EE12631D053EC37F0046E036A53ECD8
:1039500037F0066A0326065004220450E56E035031
:10396000E56E0250E56E0150E56E0050E56E0DEC1F
:103970002BF0050EE12618D053EC37F0046E036AE5
:1039800053EC37F0066A0326065004220450E56E15
:103990000350E56E0250E56E0150E56E0050E56E95
:1039A00069EC2FF0050EE126E4CF0BF0E4CF0AF02E
:1039B000E4CF09F0E4CF08F0E4CF07F0E4CF06F05D
:1039C000E4CF05F0E4CF04F0E4CF03F0E4CF02F05D
:1039D000E4CF01F0E4CF00F0E4CFD9FF1200800E75
:1039E000E56E060EE56E950EE56E2DEC32F0030EDB
:1039F000E126800EE56E060EE56E750EE56E2DEC89
:103A000032F0030EE126800EE56E060EE56E970E8F
:103A1000E56E2DEC32F0030EE126800EE56E060E0B
:103A2000E56E770EE56E2DEC32F0030EE126800E8A
:103A3000E56E060EE56E990EE56E2DEC32F0030E86
:103A4000E126800EE56E060EE56E790EE56E2DEC34
:103A500032F0030EE126800EE56E060EE56E9B0E3B
:103A6000E56E2DEC32F0030EE126800EE56E060EBB
:103A7000E56E7B0EE56E2DEC32F0030EE126800E36
:103A8000E56E060EE56E9D0EE56E2DEC32F0030E32
:103A9000E126800EE56E060EE56E7D0EE56E2DECE0
:103AA00032F0030EE126800EE56E060EE56E9F0EE7
:103AB000E56E2DEC32F0030EE126800EE56E060E6B
:103AC000E56E7F0EE56E2DEC32F0030EE126800EE2
:103AD000E56E060EE56EA10EE56E2DEC32F0030EDE
:103AE000E126800EE56E060EE56E810EE56E2DEC8C
:103AF00032F0030EE126800EE56E060EE56EA30E93
:103B0000E56E2DEC32F0030EE126800EE56E060E1A
:103B1000E56E830EE56E2DEC32F0030EE126800E8D
:103B2000E56E060EE56EA50EE56E2DEC32F0030E89
:103B3000E126800EE56E060EE56E850EE56E2DEC37
:103B400032F0030EE126800EE56E060EE56EA70E3E
:103B5000E56E2DEC32F0030EE126800EE56E060ECA
:103B6000E56E870EE56E2DEC32F0030EE126800E39
:103B7000E56E060EE56EA90EE56E2DEC32F0030E35
:103B8000E126800EE56E060EE56E890EE56E2DECE3
:103B900032F0030EE126800EE56E060EE56EAB0EEA
:103BA000E56E2DEC32F0030EE126800EE56E060E7A
:103BB000E56E8B0EE56E2DEC32F0030EE126800EE5
:103BC000E56E060EE56EAD0EE56E2DEC32F0030EE1
:103BD000E126800EE56E060EE56E8D0EE56E2DEC8F
:103BE00032F0030EE126800EE56E060EE56EAF0E96
:103BF000E56E2DEC32F0030EE126800EE56E060E2A
:103C0000E56E8F0EE56E2DEC32F0030EE126800E90
:103C1000E56E060EE56EB10EE56E2DEC32F0030E8C
:103C2000E126800EE56E060EE56E910EE56E2DEC3A
:103C300032F0030EE126800EE56E060EE56EB30E41
:103C4000E56E2DEC32F0030EE126800EE56E060ED9
:103C5000E56E930EE56E2DEC32F0030EE1261200B8
:103C6000D9CFE5FFE1CFD9FF00C0E5FF01C0E5FFF7
:103C700002C0E5FF03C0E5FF04C0E5FF05C0E5FFA6
:103C800006C0E5FF07C0E5FF08C0E5FF020EDBCF79
:103C900000F0030EDBCF01F0040EDBCF02F0036A6D
:103CA000046A53EC37F0056EFE0A01E075D08BEC28
:103CB00031F053EC37F0066E040E065CD8B05AD0E3
:103CC000FA6AFB6A0634FA36E834FA36FC0BDE0F81
:103CD000E56E3C0EFA22000EFB22E450F96E77EFFF
:103CE0001EF083EF1EF096EF1EF0A9EF1EF000C04D
:103CF000E9FF01C0F3FF02503AEC3AF0076E07C04B
:103D000003F0046A37D00050010F076E000E012047
:103D1000086E000E022007C0E9FF08C0F3FF3AEC6E
:103D20003AF0076E07C003F0046A24D00050020F77
:103D3000076E000E0120086E000E022007C0E9FF8A
:103D400008C0F3FF3AEC3AF0076E07C003F0046ACC
:103D500011D000500F0F076E000E0120086E000EEC
:103D6000022007C0E9FF08C0F3FF9CEC39F0036EA6
:103D7000F3CF04F00450E56E0350E56EE56A06509B
:103D8000E56E000EE56E4C0EE56E640EE56E7CECA5
:103D900034F0070EE1268DD0040E055CD8B089D032
:103DA000FA6AFB6A0534FA36E834FA36FC0BBE0FC1
:103DB000E56E3D0EFA22000EFB22E450F96EE7EFAD
:103DC0001EF0F4EF1EF01FEF1FF035EF1FF053EC65
:103DD00037F0036E03C0E5FF00C0E9FF01C0F3FF49
:103DE0000250BDEC3AF065D00050010F036E000E9A
:103DF0000120046E000E0220056E53EC37F0066EB3
:103E000006C0E5FF03C0E9FF04C0F3FF0550BDECA9
:103E10003AF00650D8A44DD00050030F036E000EA8
:103E20000120046E000E0220E56AF46AF66AF76A61
:103E300003C0E9FF04C0F3FF29EC3AF03AD0005088
:103E4000020F036E000E0120046E000E0220056EAC
:103E500053EC37F0066E06C0E5FF03C0E9FF04C06F
:103E6000F3FF0550BDEC3AF024D00F0E0026000EF3
:103E70000122022253EC37F0066E056AE56A06C09D
:103E8000F4FF00C0E9FF01C0F3FF025084EC3AF0F8
:103E900053EC37F0046A05260450062205C0E5FFFE
:103EA00006C0F4FF00C0E9FF01C0F3FF025084EC3C
:103EB0003AF0E4CF08F0E4CF07F0E4CF06F0E4CF27
:103EC00005F0E4CF04F0E4CF03F0E4CF02F0E4CF58
:103ED00001F0E4CF00F0E4CFD9FF120000C0E5FF0D
:103EE00001C0E5FF02C0E5FF03C0E5FF0401095181
:103EF000D8B40CD19DA81DD09EA81BD007019A5103
:103F00000701971905E168EC3AF00701976BFED0BD
:103F1000000E07019A25006E016A0F0E012200C0F3
:103F2000E9FF01C0EAFFEFCF93F79A2B93C7ADFFEC
:103F3000EDD09DAAEBD09EAAE9D0ABA205D0070197
:103F4000988168EC3AF0E2D0ABA405D007019883E1
:103F500068EC3AF0DBD0ABA048D0AECF93F70AC400
:103F600000F0016A008E93C702F0036A0250001845
:103F700003E10350011801E004D007019889AB96D2
:103F8000C5D00701935104E0935104010A1929E1B6
:103F900007019899AB960701935103E007019897A1
:103FA00002D00701988793C79CF795C79DF7070133
:103FB0009551006E000407019E6F600E07019D255C
:103FC000006E016A000E012200C0E9FF01C0EAFF95
:103FD00093C7EFFF9D2B9D51800A02E107019D6B66
:103FE00095D007019899AB8691D0AECF93F7070192
:103FF00098A921D00AC400F0016A008E93C702F08C
:10400000036A0250001803E10350011801E011D0C7
:104010009D9AAB9894900701975104E1AD6A68ECC2
:104020003AF007D000CFADFF010E07019A6F9D88CF
:104030006DD0AB866BD00701935107019C27070118
:104040009D5107019E191BE107019C510CE19DC781
:1040500095F7070198B712D09D9AAB989490AD6AE6
:1040600068EC3AF00BD00701988598B707D09D9A75
:10407000AB989490010EAD6E68EC3AF047D0070112
:104080009D510701961908E10701965107019519FD
:1040900003E068EC3AF03AD095C700F0016A004AB4
:1040A000012AE56A800EE56E0150E56E0050E56E6E
:1040B000F4EC2CF0006E040EE12600500701946F22
:1040C00007019D190FE193C700F01F0E00140701AF
:1040D0009E6F006E020E00249E6F0701955107012E
:1040E0009E279E9F9DC700F007019D2B016A600ED1
:1040F0000026000E012200C0E9FF01C0EAFF93C7BD
:10410000EFFF9D51800A02E107019D6BE4CF03F0B0
:10411000E4CF02F0E4CF01F0E4CF00F01200D9CFF9
:10412000E5FFE1CFD9FF00C0E5FF01C0E5FF02C018
:10413000E5FF03C0E5FF04C0E5FF05C0E5FF06C0DD
:10414000E5FF07C0E5FF020EDBCF00F0030EDBCF7B
:1041500001F0040EDBCF02F0050EDBCF03F0060EFC
:10416000DBCF04F0070EDBCF05F0080EDBCF06F047
:10417000090EDBCF07F000500701636F0150646F39
:104180000250656F0350666F04500701676F05505A
:10419000686F0650696F07506A6F07016351070126
:1041A0006903F4CF01F0F3CF00F0005007016D6F09
:1041B00001506E6F0701635107016703F4CF01F0EF
:1041C000F3CF00F0005007016B6F01506C6F0701D7
:1041D000665107016703F3CF00F007016E51002617
:1041E00000506E6F0701655107016803F3CF01F0BE
:1041F00001500026005007016E6F0701655107014D
:104200006703F4CF01F0F3CF00F007016D510026F2
:104210006E51012200506D6F01506E6F07016451A5
:1042200007016803F4CF03F0F3CF02F00250002639
:1042300003500122005007016D6F01506E6F07019E
:10424000645107016903F3CF00F000500701726F5A
:104250000701645107016703F4CF01F0F3CF00F0C9
:1042600000500701706F0150716F07016351070122
:104270006A03F3CF00F000500701766F0701635126
:1042800007016803F4CF01F0F3CF00F000500701FD
:10429000746F0150756F07016F6B0701736B070136
:1042A0006F5107016B25006E0701705107016C21EA
:1042B000016E0701715107016D21026E07017251F4
:1042C00007016E21036E00506B6F01506C6F02503E
:1042D0006D6F03506E6F0701735107016B25006E00
:1042E0000701745107016C21016E07017551070127
:1042F0006D21026E0701765107016E21036E03C026
:10430000E9FF02C0F4FF01C0F3FF0050E4CF07F063
:10431000E4CF06F0E4CF05F0E4CF04F0E4CF03F0FF
:10432000E4CF02F0E4CF01F0E4CF00F0E4CFD9FF16
:104330001200D9CFE5FFE1CFD9FF00C0E5FF01C0F2
:10434000E5FF02C0E5FF03C0E5FF04C0E5FF05C0CF
:10435000E5FF06C0E5FF07C0E5FF08C0E5FF09C0AF
:10436000E5FF0AC0E5FF0BC0E5FF0CC0E5FF0DC08F
:10437000E5FF0EC0E5FF0FC0E5FF020EDBCF00F04A
:10438000030EDBCF01F0040EDBCF02F0050EDBCF16
:1043900003F0060EDBCF04F0070EDBCF05F0080EAE
:1043A000DBCF06F0200E076E086A06C009F00A6A25
:1043B0000B6A0C6AE56AE56AE56A0950E56E035026
:1043C000E56E0250E56E0150E56E0050E56E44EC7E
:1043D00023F00D6E080EE126300E0D263A0E0D5C10
:1043E00005E30D500E6E270E0E240D6EFF0E0726F0
:1043F0000822D50E07240E6E060E08200F6E0EC082
:10440000E9FF0FC0EAFF0DC0EFFF0C50E56E0B5047
:10441000E56E0A50E56E0950E56E0350E56E0250F8
:10442000E56E0150E56E0050E56EC9EC26F0006EB9
:10443000F3CF01F0F4CF02F0E9CF03F0080EE1264C
:104440000050011002100310D8A4AFD707C000F02D
:1044500008C001F004C002F005C003F000C004F081
:1044600001C005F0004A012AD50E0426060E0522D9
:1044700004C0E9FF05C0EAFFEFCF04F002C0E9FF86
:1044800003C0EAFF04C0EFFF024A032A000E015CEA
:1044900002E1200E005CE2E302C0E9FF03C0EAFF94
:1044A000000EEF6AE4CF0FF0E4CF0EF0E4CF0DF092
:1044B000E4CF0CF0E4CF0BF0E4CF0AF0E4CF09F046
:1044C000E4CF08F0E4CF07F0E4CF06F0E4CF05F046
:1044D000E4CF04F0E4CF03F0E4CF02F0E4CF01F046
:1044E000E4CF00F0E4CFD9FF1200D9CFE5FFE1CF50
:1044F000D9FF00C0E5FF01C0E5FF02C0E5FF03C032
:10450000E5FF04C0E5FF05C0E5FF06C0E5FF07C005
:10451000E5FF08C0E5FF09C0E5FF0AC0E5FF0BC0E5
:10452000E5FF0CC0E5FF0DC0E5FF020EDBCF00F09C
:10453000030EDBCF01F0040EDBCF02F0050EDBCF64
:1045400003F0060EDBCF04F0070EDBCF05F0080EFC
:10455000DBCF06F0090EDBCF07F0D88003AED89092
:10456000086A083608500FE0031C0C6E021C0B6E24
:10457000011C0A6E001C096E092A0DE10A2A0BE1D2
:104580000B4A0C2A08D000C009F001C00AF002C092
:104590000BF003C00CF0D88007AED890006A00364C
:1045A00000500FE0071C0D6E061C036E051C026E0A
:1045B000041C016E012A0DE1022A0BE1034A0D2AB7
:1045C00008D004C001F005C002F006C003F007C027
:1045D0000DF00D50E56E0350E56E0250E56E015092
:1045E000E56E0C50E56E0B50E56E0A50E56E095015
:1045F000E56EC9EC26F0016EF3CF02F0F4CF03F0C4
:10460000E9CF04F0080EE1260050081A085016E021
:10461000041C076E031C066E021C056E011C006E56
:10462000002A04E1052A02E1064A072A07C0E9FF39
:1046300006C0F4FF05C0F3FF005007D004C0E9FF37
:1046400003C0F4FF02C0F3FF0150E4CF0DF0E4CF4C
:104650000CF0E4CF0BF0E4CF0AF0E4CF09F0E4CFA4
:1046600008F0E4CF07F0E4CF06F0E4CF05F0E4CFA4
:1046700004F0E4CF03F0E4CF02F0E4CF01F0E4CFA4
:1046800000F0E4CFD9FF1200D9CFE5FFE1CFD9FF89
:1046900000C0E5FF01C0E5FF02C0E5FF03C0E5FF84
:1046A00004C0E5FF05C0E5FF06C0E5FF07C0E5FF64
:1046B00008C0E5FF09C0E5FF0AC0E5FF020EDBCF39
:1046C00000F0030EDBCF01F0040EDBCF02F0050E8D
:1046D000DBCF03F0060EDBCF04F0070EDBCF05F0D7
:1046E000080EDBCF06F0090EDBCF07F0086A045096
:1046F00005100610071005E1E968F468F368E8683A
:1047000047D0096A0750800BE8440A6E0A501BE143
:10471000045004260536063607360750035C08E1C8
:104720000650025C05E10550015C02E10450005CAA
:1047300006E2D890073206320532043204D0092A44
:1047400009C008F0DFD70750035C08E10650025C9F
:1047500005E10550015C02E10450005C08E30450EF
:10476000005E0550015A0650025A0750035AD8906D
:10477000073206320532043208C009F00806095033
:10478000E2E103C0E9FF02C0F4FF01C0F3FF005003
:10479000E4CF0AF0E4CF09F0E4CF08F0E4CF07F06B
:1047A000E4CF06F0E4CF05F0E4CF04F0E4CF03F06B
:1047B000E4CF02F0E4CF01F0E4CF00F0E4CFD9FF82
:1047C000120000C0E5FF01C0E5FF02C0E5FF03C025
:1047D000E5FF04C0E5FF070196510701951901E1C6
:1047E0006AD096C700F00050016E0128006E009E4E
:1047F000600E0024016E026A000E022201C0E9FF71
:1048000002C0EAFFEFCFA0F71F0E0701A01796C75F
:104810009FF7A05107019F279F51016E020E0124AF
:104820009F6F9F9F53EC37F0016E015003E1016AC7
:10483000012A01D0016A53EC37F00701A06FA0C72D
:1048400002F0800E0216A0C703F01F0E031603C06D
:1048500004F003C0A0F7045003E195C796F73ED0DB
:1048600001501EE0025025E053EC37F0006E0701C6
:10487000A051016E0104A06F0050420A1AE00050DE
:104880004E0A03E13AEC34F014D00050460A03E13A
:10489000A7EC3AF00ED00050490A0BE1FF0009D016
:1048A00096C7A1F7025003E0FBEC34F002D006EC0F
:1048B0002CF09FC796F7040106510401071906E082
:1048C0000701975103E179EC24F008D094B006D0A9
:1048D0000701975103E1ACB268EC3AF0E4CF04F081
:1048E000E4CF03F0E4CF02F0E4CF01F0E4CF00F036
:1048F000120000C0E5FF01C0E5FF02C0E5FF03C0F4
:10490000E5FF04C0E5FFACA27ED083EC38F0006E7A
:10491000005005E10401076B0401066B74D007C465
:1049200001F00050012683EC38F0026E0050036E57
:104930000304006E0250230A1FE1010E005CD8A0A0
:1049400060D083EC38F0026E690A03E1F8EC36F0CF
:1049500058D00250720A03E168EC3AF052D002508B
:10496000730A01E04ED09480AB869D8A9D98AE502C
:10497000AE50AB98AB8845D00250430A05E00250D8
:10498000420A01E03ED006D000C003F0046A038E64
:104990000350006E00C099F700500F01006F010E28
:1049A00007019A6F04010751011814E083EC38F0F5
:1049B000026E07019927000E07019A25006E036A0F
:1049C0000F0E032200C0E9FF03C0EAFF02C0EFFFA1
:1049D0009A2BE8D7000E07019A25006E026A0F0E87
:1049E00002220701991D036E032A00C0E9FF02C0DD
:1049F000EAFF03C0EFFF07019A2B9AC797F7070159
:104A0000916B01C007F4E4CF04F0E4CF03F0E4CFEE
:104A100002F0E4CF01F0E4CF00F01200D9CFE5FFBF
:104A2000E1CFD9FF00C0E5FF01C0E5FF02C0E5FF0F
:104A300003C0E5FF04C0E5FF05C0E5FF020EDBCFC4
:104A400000F0E56A0050E56EE56A020EE56EDDEC09
:104A500031F0006EF3CF01F0040EE12600500401A6
:104A60000025026E01500121036E024A032A035001
:104A7000E56E0250E56E17EC33F0026EE652E65238
:104A8000036A040100510026015101220150E56E24
:104A90000050E56E17EC33F0E652E652016A025C14
:104AA000006E01500358016E026A036AD88001AE9D
:104AB000D89019E30050FF0F046EFF0E0120E56E41
:104AC0000450E56EE56A040EE56EDDEC31F0046E2F
:104AD000F3CF05F0040EE1260450010F026E000E24
:104AE0000520036E1DD00150800F800F02E1010EE2
:104AF000005C16E3004A012A0150E56E0050E56EA5
:104B0000E56A040EE56EDDEC31F0006EF3CF01F0E6
:104B1000040EE1260050FF0F026EFF0E0120036E0F
:104B200003C0F3FF0250E4CF05F0E4CF04F0E4CF7C
:104B300003F0E4CF02F0E4CF01F0E4CF00F0E4CFE3
:104B4000D9FF1200D9CFE5FFE1CFD9FF00C0E5FFC3
:104B500001C0E5FF02C0E5FF03C0E5FF04C0E5FFBB
:104B600005C0E5FF06C0E5FF07C0E5FF020EDBCF8D
:104B700000F0030EDBCF01F0040EDBCF02F000509B
:104B80000B0F036E000E0120046E000E0220E56A7A
:104B9000F46AF66AF76A03C0E9FF04C0F3FF29EC80
:104BA0003AF00050070F036E000E0120046E000E55
:104BB0000220056E0050030F066E000E0120076EE6
:104BC000000E0220E56AF46AF66AF76A06C0E9FF99
:104BD00007C0F3FF29EC3AF0E56AF46AF66AF76A6F
:104BE00003C0E9FF04C0F3FF055029EC3AF0005080
:104BF000010F036E000E0120046E000E0220056EF0
:104C00000050020F066E000E0120076E000E0220FB
:104C1000E56A06C0E9FF07C0F3FFBDEC3AF0E56ABC
:104C200003C0E9FF04C0F3FF0550BDEC3AF0E56AAC
:104C300000C0E9FF01C0F3FF0250BDEC3AF0E4CF41
:104C400007F0E4CF06F0E4CF05F0E4CF04F0E4CFC2
:104C500003F0E4CF02F0E4CF01F0E4CF00F0E4CFC2
:104C6000D9FF120025642025640A0000D9CFE5FF92
:104C7000E1CFD9FF00C0E5FF01C0E5FF02C0E5FFBD
:104C800003C0E5FF04C0E5FF05C0E5FF06C0E5FF82
:104C900007C0E5FF08C0E5FF09C0E5FF0AC0E5FF62
:104CA000020EDBCF00F0030EDBCF01F0040EDBCFF2
:104CB00002F0050EDBCF03F0060EDBCF04F0070E8B
:104CC000DBCF05F00038E8441F0B066E076A7D0E47
:104CD0000626070E072206C0E9FF07C0EAFFEFCF4E
:104CE00008F00050096E070E0916010E0A6E0950F1
:104CF0000DE006E6E86CD8900A36010FFDE306D019
:104D0000D8900ABED8800A32010FFBE308500A127D
:104D100006C0E9FF07C0EAFF0AC0EFFF100E00243B
:104D2000066E076A070E072206C0E9FF07C0EAFF02
:104D300001C0EFFF016A000E0026070E0122800E5F
:104D4000025E070E02160238F00B036E070E051600
:104D50000550032600C0E9FF01C0EAFF03C0EFFFD2
:104D6000E4CF0AF0E4CF09F0E4CF08F0E4CF07F095
:104D7000E4CF06F0E4CF05F0E4CF04F0E4CF03F095
:104D8000E4CF02F0E4CF01F0E4CF00F0E4CFD9FFAC
:104D90001200D9CFE5FFE1CFD9FF00C0E5FF01C088
:104DA000E5FF02C0E5FF03C0E5FF04C0E5FF05C065
:104DB000E5FF06C0E5FF07C0E5FF08C0E5FF09C045
:104DC000E5FF0AC0E5FF0BC0E5FF0CC0E5FF0DC025
:104DD000E5FF020EDBCF00F0030EDBCF01F0040E87
:104DE000DBCF02F0050EDBCF03F0060EDBCF04F0C5
:104DF000070EDBCF05F0080EDBCF06F0090EDBCF88
:104E000007F0086A096A0A6A0B6A200E0C6E0350E2
:104E1000800BE8440D6E0050002601360236033642
:104E20000850082609360A360B360D50D8A40880DB
:104E300007500B5C08E106500A5C05E10550095C6F
:104E400002E10450085C09E30450085E0550095A69
:104E500006500A5A07500B5A00800C040D6E0DC004
:104E60000CF00D50D4E103C0E9FF02C0F4FF01C013
:104E7000F3FF0050E4CF0DF0E4CF0CF0E4CF0BF0E3
:104E8000E4CF0AF0E4CF09F0E4CF08F0E4CF07F074
:104E9000E4CF06F0E4CF05F0E4CF04F0E4CF03F074
:104EA000E4CF02F0E4CF01F0E4CF00F0E4CFD9FF8B
:104EB000120000C0E5FF01C0E5FF03C0E5FF04C02C
:104EC000E5FF05C0E5FF06C0E5FF07C0E5FF08C038
:104ED000E5FF09C0E5FF0AC0E5FF0BC0E5FF36C4EA
:104EE00000F037C401F00401363F01D0372B0050E9
:104EF000E56E5AEC3AF0E652076E046A056A066AF5
:104F000036C400F037C401F00401363F01D0372B1E
:104F10000050E56E5AEC3AF0E6520B6A0A6E086AE7
:104F20000850041205120A5006120B50071236C41C
:104F300000F037C401F00401363F01D0372B005098
:104F4000E56E5AEC3AF0E652036E006A03C001F0D7
:104F5000E86A03BEFF0E086E096E0050041201508D
:104F60000512085006120950071236C400F037C463
:104F700001F00401363F01D0372B0050E56E5AECAA
:104F80003AF0E652016A04120150051206120712A5
:104F900007C0E9FF06C0F4FF05C0F3FF0450E4CFEB
:104FA0000BF0E4CF0AF0E4CF09F0E4CF08F0E4CF4F
:104FB00007F0E4CF06F0E4CF05F0E4CF04F0E4CF4F
:104FC00003F0E4CF01F0E4CF00F01200D9CFE5FF09
:104FD000E1CFD9FF00C0E5FF01C0E5FF02C0E5FF5A
:104FE00003C0E5FF04C0E5FF05C0E5FF06C0E5FF1F
:104FF00007C0E5FF020EDBCF00F0030EDBCF01F0B0
:10500000040EDBCF02F0050EDBCF03F003C004F08B
:10501000056A0350D8B454D000C0E9FF01C0F3FFC3
:1050200002503AEC3AF0066E430A08E1010E056EB2
:1050300003C006F0076A068E0650036E0406002AB7
:1050400002E3014A022A9D9AAB9894909D989EA8EB
:10505000FED7AC80AD6A00009EA8FED7AC9003C01E
:10506000ADFF00009EA8FED7055004E0420EAD6ED5
:10507000032604D0620EAD6E620E0326045015E0C6
:1050800000009EA8FED700C0E9FF01C0F3FF025058
:105090003AEC3AF0056E05C0ADFF05500326040654
:1050A000002A02E3014A022AE9D700009EA8FED79F
:1050B000031CAD6EAD2A00009EA8FED768EC3AF046
:1050C000E4CF07F0E4CF06F0E4CF05F0E4CF04F03E
:1050D000E4CF03F0E4CF02F0E4CF01F0E4CF00F03E
:1050E000E4CFD9FF1200D9CFE5FFE1CFD9FF00C04F
:1050F000E5FF01C0E5FF02C0E5FF03C0E5FF04C016
:10510000E5FF05C0E5FF06C0E5FF07C0E5FF020EAD
:10511000DBCF00F0030EDBCF01F0040EDBCF02F09B
:10512000050EDBCF03F002C006F00650046E800AC5
:1051300033E100C0E9FF01C0F3FF0250DDEC38F0BD
:10514000056EF3CF06F0F4CF07F003C0E5FF05C00E
:10515000E9FF06C0F3FF0750BDEC3AF000C0E9FFDD
:1051600001C0F3FF0250DDEC38F0056EF3CF06F01E
:10517000F4CF07F0052A02E3064A072A05C0E5FF37
:1051800006C0F4FF07C0F6FF00C0E9FF01C0F3FF4F
:1051900002504BEC3AF020D004C000F000AA1CD022
:1051A000007A0050046E04E1035007EC3BF014D089
:1051B0000450010A04E1035002EC00F00DD0045049
:1051C0000F0A04E10350C7EC36F006D004500E0A73
:1051D00003E103501AEC3BF0E4CF07F0E4CF06F014
:1051E000E4CF05F0E4CF04F0E4CF03F0E4CF02F025
:1051F000E4CF01F0E4CF00F0E4CFD9FF120000C00B
:10520000E5FF01C0E5FF02C0E5FFA4AA77D071A2C7
:1052100008D00401206B745000007450719871889C
:105220006DD071A405D0010E0401206F745066D0BA
:1052300071B004D00401206B745060D074CF00F0C2
:1052400004012051010A17E100500EE1020E040191
:10525000206F0401216B226BA4A802D0010E736E93
:10526000010E0401236F06D00401206BA4A802D014
:10527000FF0E736E43D004012051020A01E03ED0BC
:105280000401213F01D0222B040122510701885D36
:1052900004E1040121510701875D04E221C487F77D
:1052A00022C488F7020E0401225D02E1000E215D96
:1052B00025E2010E0401225D02E1000E215D11E3F1
:1052C00004012151016EFF0E2225026E000E0126FF
:1052D000030E022201C0E9FF02C0EAFF00C0EFFF97
:1052E0000DD0000E04012125016E020E2221026E56
:1052F00001C0E9FF02C0EAFF00C0EFFFE4CF02F007
:10530000E4CF01F0E4CF00F01200D9CFE5FFE1CF08
:10531000D9FF00C0E5FF01C0E5FF02C0E5FF03C003
:10532000E5FF04C0E5FF05C0E5FF06C0E5FF07C0D7
:10533000E5FF020EDBCF00F0030EDBCF01F0040E21
:10534000DBCF02F0050EDBCF03F007C408F4040145
:1053500006510401085F0851046E0404086F03C07D
:1053600004F0056A030E0426D8B0052A08C406F026
:10537000076A0750800FF36E0550800FF35C02E15F
:105380000450065C02E2E86830D0020E035C02E2E0
:10539000E86A2BD00350046E0404036EE56E75ECCE
:1053A00035F0E652046A0350045C14E20450002411
:1053B000056EE86A0120066EE86A022005C0E9FF72
:1053C00006C0F3FF3AEC3AF0042AE56E75EC35F0CE
:1053D000E652E9D707C408F4040106510401085F46
:1053E0000851006E0004086FE86AE4CF07F0E4CFCC
:1053F00006F0E4CF05F0E4CF04F0E4CF03F0E4CF0F
:1054000002F0E4CF01F0E4CF00F0E4CFD9FF1200C6
:1054100000C0E5FF01C0E5FF02C0E5FF03C0E5FFF6
:1054200004C0E5FF006A7D0E0024016E026A070ECB
:10543000022201C0E9FF02C0EAFFEF6A002A020E61
:10544000005CF1E3006A0050020DF450026EF3CFED
:1054500001F0E00E0124036E000E0220046E03C072
:10546000E9FF04C0EAFFEE6AEF6A5C0E0124036EF6
:10547000040E0220046E03C0E9FF04C0EAFFEE6AD6
:10548000EF6A550E0124036E060E0220046E03C05F
:10549000E9FF04C0EAFFEE6AEF6A750E0124036EAD
:1054A000060E0220046E03C0E9FF04C0EAFFEE6AA4
:1054B000EF6A950E0126060E022201C0E9FF02C026
:1054C000EAFFEE687F0EEF6E000E0024016E026AA6
:1054D000070E022201C0E9FF02C0EAFFEF68002ABE
:1054E000100E005CD8A0AFD7AF0EC06EC16A010E1F
:1054F000C26EC282E4CF04F0E4CF03F0E4CF02F046
:10550000E4CF01F0E4CF00F01200432041202564F5
:105510002025640A0000D9CFE5FFE1CFD9FF00C004
:10552000E5FF01C0E5FF02C0E5FF03C0E5FF04C0E1
:10553000E5FF05C0E5FF06C0E5FF07C0E5FF08C0C1
:10554000E5FF09C0E5FF0AC0E5FF0BC0E5FF0CC0A1
:10555000E5FF020EDBCF00F0030EDBCF01F0040EFF
:10556000DBCF02F0050EDBCF03F0060EDBCF04F03D
:10557000070EDBCF05F0080EDBCF06F0090EDBCF00
:1055800007F002500A6E0150096E0050086E06C006
:105590000BF007C00CF0FF0E062607220B500C1074
:1055A0001AE003C0E9FF04C0F3FF05503AEC3AF0FB
:1055B0000B6E032A02E3044A052A0BC0E5FF08C06C
:1055C000E9FF09C0F3FF0A50BDEC3AF0082ADFE317
:1055D000094A0A2ADCD702C0F4FF01C0F3FF0050D9
:1055E000E4CF0CF0E4CF0BF0E4CF0AF0E4CF09F005
:1055F000E4CF08F0E4CF07F0E4CF06F0E4CF05F005
:10560000E4CF04F0E4CF03F0E4CF02F0E4CF01F004
:10561000E4CF00F0E4CFD9FF1200D9CFE5FFE1CF0E
:10562000D9FF00C0E5FF01C0E5FF02C0E5FF03C0F0
:10563000E5FF04C0E5FF05C0E5FF06C0E5FF07C0C4
:10564000E5FF08C0E5FF0BC0E5FF0CC0E5FF0DC09E
:10565000E5FF020EDBCF00F0030EDBCF01F0040EFE
:10566000DBCF02F0050EDBCF03F0060EDBCF04F03C
:1056700003C0E5FF04C0F4FF00C0E9FF01C0F3FF71
:10568000025084EC3AF00050020F056E000E01202B
:10569000066E000E0220076EE86A04BEFF0E086E5A
:1056A0000D6E04500C6E03500B6EE56A0BC0F4FFD8
:1056B0000CC0F6FF0DC0F7FF05C0E9FF06C0F3FF01
:1056C000075029EC3AF0080E0026000E01220222B3
:1056D000E56AF46AF66AF76A00C0E9FF01C0F3FF01
:1056E000025029EC3AF0E4CF0DF0E4CF0CF0E4CF17
:1056F0000BF0E4CF08F0E4CF07F0E4CF06F0E4CFFE
:1057000005F0E4CF04F0E4CF03F0E4CF02F0E4CFFF
:1057100001F0E4CF00F0E4CFD9FF120000C0E5FFB4
:1057200001C0E5FF02C0E5FF03C0E5FF05C0E5FFDE
:10573000006A016A0150800F7F0F02E1000E005CD9
:105740000FE30050026EFF0E0124036E000E0226CE
:10575000030E032202C0E9FF03C0EAFFEF6A0BD089
:10576000000E0024026E020E0120036E02C0E9FF4B
:1057700003C0EAFFEF6A004A012A0150800F7E0F42
:1057800002E1000E005CD6E3938E810E006E0F0ED8
:10579000016E0F0E036E380E0026035001220F0E0D
:1057A000036E800E005E0350015A810E026E0F0ED2
:1057B000036E0F0E056E380E0226055003220F0EE3
:1057C000056E800E025E0550035A02C0E9FF03C059
:1057D000EAFFEFCF02F0029E00C0E9FF01C0EAFF3E
:1057E00002C0EFFF708603EC3BF0E5EC3AF0728408
:1057F000718CA59A718EE4CF05F0E4CF03F0E4CF6D
:1058000002F0E4CF01F0E4CF00F0120000C0E5FFA9
:1058100001C0E5FF03C0E5FF53EC37F0006E0A0A54
:1058200013E000500B0A21E00050140A34E000504D
:10583000150A01E13BD00050780A01E142D0005046
:10584000790A01E149D052D053EC37F0006A016E79
:1058500053EC37F0036A00240401006F0350012069
:10586000016F010E0401036F41D053EC37F0006A61
:10587000016E53EC37F0036A00260350012253EC0B
:1058800037F0E56E0150E56E0050E56E7BEC32F0CE
:10589000030EE1262BD0800EE56E0F0EE56E230E73
:1058A000E56E4AEC1BF0030EE12620D0800EE56E7B
:1058B000040EE56EE80EE56E4AEC1BF0030EE126E1
:1058C00015D0800EE56E040EE56E930EE56E52EC7B
:1058D00014F0030EE1260AD0800EE56E060EE56E8A
:1058E000000EE56E52EC14F0030EE126E4CF03F057
:1058F000E4CF01F0E4CF00F01200D9CFE5FFE1CF13
:10590000D9FF00C0E5FF01C0E5FF02C0E5FF03C00D
:10591000E5FF04C0E5FF05C0E5FF020EDBCF00F0A8
:10592000030EDBCF01F0040EDBCF02F00050020DBE
:10593000F450036EF3CF00F05C0E0024046E040EEE
:105940000320056E04C0E9FF05C0EAFF01C0EEFFB9
:1059500002C0EFFF550E0024046E060E0320056EF4
:1059600004C0E9FF05C0EAFFEECF04F0EFCF05F079
:105970000150045C016E02500558026EB50E0026FF
:10598000060E032200C0E9FF03C0EAFF01C0EEFFDC
:1059900002C0EFFFD88002AED89004E3021E016C73
:1059A000D8B4022A0250800F800F02E1030E015C7E
:1059B00002E2016A026A0150021007E100C0E9FF39
:1059C00003C0EAFF000EEE6AEF6AE4CF05F0E4CF11
:1059D00004F0E4CF03F0E4CF02F0E4CF01F0E4CF31
:1059E00000F0E4CFD9FF1200D9CFE5FFE1CFD9FF16
:1059F00000C0E5FF01C0E5FF02C0E5FF03C0E5FF11
:105A000004C0E5FF05C0E5FF06C0E5FF020EDBCFE1
:105A100000F0030EDBCF01F0040EDBCF02F0050E29
:105A2000DBCF03F0D88001AED890046A043604506E
:105A300007E0011C066E001C056E054A062A04D00C
:105A400000C005F001C006F0D88003AED89007E38F
:105A5000031C016E021C006E004A012A04D002C021
:105A600000F003C001F00150E56E0050E56E0650F5
:105A7000E56E0550E56E86EC30F0006EF3CF01F078
:105A8000040EE12604500AE0011C036E001C026EA5
:105A9000024A032A03C0F3FF025003D001C0F3FF00
:105AA0000050E4CF06F0E4CF05F0E4CF04F0E4CFFB
:105AB00003F0E4CF02F0E4CF01F0E4CF00F0E4CF54
:105AC000D9FF1200D9CFE5FFE1CFD9FF00C0E5FF34
:105AD00001C0E5FF02C0E5FF03C0E5FF04C0E5FF2C
